:1000000060C000006EC000006CC000006AC000004C
:1000100068C0000066C0000064C0000062C000004C
:1000200060C000005EC000005CC000005AC000005C
:1000300058C0000056C0000054C0000052C000006C
:1000400050C000004EC000004CC000004AC000007C
:1000500048C0000046C0000044C0000042C000008C
:1000600040C00000F3C00000C6C000003AC000005D
:1000700038C0000036C0000034C0000032C00000AC
:1000800030C000002EC000002CC000002AC00000BC
:1000900028C0000026C0000024C0000022C00000CC
:1000A00020C000001EC000001CC000004279746522
:1000B0003A200055415254204578616D706C650DB1
:1000C0000A0011241FBECFEFDAE0DEBFCDBF11E082
:1000D000A0E0B1E001C01D92AC36B107E1F70FD04E
:1000E000FEC08ECFCF93DF93EC01FE012196849169
:1000F000882311F04CD0F9CFDF91CF9108951F9351
:1001000080E8809361001092610060E076E980E011
:1001100090E012D083EB90E0E5DF62D08823E9F332
:100120004BD0182F8CEA90E0DDDF812F30D08DE0AE
:100130002ED08AE02CD0F1CF9B01AC01F89460E086
:1001400079E08DE390E0A9D021503040404050400C
:1001500056954795379527953093CD002093CC0041
:1001600082E08093C80088E98093C90086E080938C
:10017000CA00109243018091430180934201109282
:10018000010180910101809300017894089590917C
:1001900042019F5F983208F090E0209143012917B7
:1001A000E1F3E92FF0E0EC5BFE4F80839093420196
:1001B00088EB8093C900089590910001809101011E
:1001C0009817D1F3909101019F5F903408F090E06F
:1001D000E92FF0E0EE5FFE4F8081909301010895DA
:1001E0008091000190910101891710F0891B0895F9
:1001F000805C891B08951F920F920FB60F921124F5
:100200008F939F93EF93FF939091420180914301CD
:10021000981721F488E98093C9000FC080914301A9
:100220008F5F883208F080E0E82FF0E0EC5BFE4F53
:1002300090819093CE0080934301FF91EF919F9125
:100240008F910F900FBE0F901F9018951F920F92D5
:100250000FB60F9211242F938F939F93EF93FF93D9
:100260009091CE00809100018F5F803408F080E093
:1002700020910101821739F0E82FF0E0EE5FFE4F88
:10028000908380930001FF91EF919F918F912F9127
:100290000F900FBE0F901F901895A1E21A2EAA1B67
:1002A000BB1BFD010DC0AA1FBB1FEE1FFF1FA21726
:1002B000B307E407F50720F0A21BB30BE40BF50B23
:1002C000661F771F881F991F1A9469F760957095AC
:1002D000809590959B01AC01BD01CF010895F894E4
:0202E000FFCF4E
:00000001FF
